:020000040000FA
:020000000528D1
:0800080005288316F030880082
:1000100086018312860188010030A5000030A60009
:100020000030A4000030A300932017201428F730DC
:100030008800A920081A21280030A4000130A3005C
:100040000800881A28280030A4000230A300080005
:10005000081B2F280030A4000330A3000800881BD1
:1000600036280030A4000430A3000800FB308800CC
:10007000A920081A40280030A4000530A300080079
:10008000881A47280030A4000630A3000800081B87
:100090004E280030A4000730A3000800881B552814
:1000A0000030A4000830A3000800FD308800A9201B
:1000B000081A5F280030A4000930A3000800881A3D
:1000C00066280130A4000030A3000800081B6D283A
:1000D0000130A4000130A3000800881B74280130FF
:1000E000A4000230A3000800FE308800A920081AEE
:1000F0007E280130A4000330A3000800881A852858
:100100000130A4000430A3000800081B8C28013033
:10011000A4000530A3000800881B08000130A400DB
:100120000630A30008002508880001308600A920B9
:100130002608880002308600A920240888000430A0
:100140008600A9202308880008308800A92086019D
:1001500008000130A0003230A1003230A200A20B12
:0C016000AF28A10BAD28A00BAB280800B5
:02400E007A3FF7
:00000001FF
